:04000000803106281D
:100008008431042C80310828FD0120308400003020
:10001800850008308331A6238031A0308400003069
:10002800850049308331A623803140018331AC2BD0
:1000380054019E1C202821281C2883319F238031AD
:1000480042011F142E289F1F2A282B282E281F10F4
:100058009F131F141F1831283228272883316A2339
:1000680080314001B101B2010930AF000030B00069
:10007800712883316A238031FA007A084001AE0082
:100088002E08FA003108A03E860087017A08810010
:100098000130B1070030B23D043031063204031D8F
:1000A80056285728712802304101200603195D2877
:1000B8005E286A28053020060319632864286A2800
:1000C80007302006031D69286A2871282108400185
:1000D800AF07410122084001B03D4001300832021B
:1000E800031D78282F083102031C7B287C283D2813
:1000F8008031A7208031FA00FB017A084001AF0067
:100108007B08B00055308331842380314001B10130
:10011800B2019B283108A03E86008701010883317F
:100128008423803101304001B1070030B23D3008EE
:100138003202031DA1282F083102031CA428A52878
:100148008E281C28080041012308F7007708400181
:10015800F00041012408F70077084001F100E92880
:100168008131BC218031F7007708F90006298131F7
:1001780008218031F7007708F900062982316422C6
:100188008031F7007708F90006298231E8228031AA
:10019800F7007708F9000629823111228031F7002B
:1001A8007708F9000629A901A90AFD01FD0A0A3004
:1001B800F7007708F9000629FF30F7007708A9004B
:1001C8000A30F7007708F900062941012008F700EE
:1001D800F8017808003A0319F228E0287708003A6D
:1001E8000319B428023A0319BB28013A0319C22893
:1001F800053A0319C9280E3A0319D028013A0319F8
:10020800D728E028790808004101250850019A00FC
:100218004101260850019B00A4309E00F401F5011D
:1002280053291F3050011A05F2001F3072060319B6
:100238001E291F29302941012108FE3EF200FF3006
:10024800223DF30075087306031D2C2974087206F5
:10025800031D2F293029322950019E127408A93E06
:1002680086008701010850019C007408AA3E860098
:10027800870101089D0083318E2381310130F2000E
:10028800720850019A07031D4A294B294F2901304A
:10029800F20072089B070230F4070030F53D410177
:1002A80022087502031D5A2921087402031C5D29BE
:1002B8005E291529A901A90A4001F001F1010A30B6
:1002C8000800FC0100000130F7007708FC077C0AF1
:1002D800031D6F2970296629400110197429752991
:1002E80077290130BB294101A5010430F7007708BF
:1002F800A600FC30A1007730A200823111228131A2
:10030800FE3050019A003F309B001E140000000090
:1003180050011C08F700F8017708FA007808FB007C
:100328000130F70077089A07031D9B299C29A0290B
:100338000130F70077089B071E14000000005001E9
:100348001C08F700F8017708F800F7017708FA07A2
:100358007808FB3D400123087B06031DB5292208C8
:100368007A060319B829B929BA297529003008006D
:100378000830F20072084101A900AA01AB01AC01E2
:10038800AC0AAD01AE01063050019A009B011E1760
:100398001E140000000050011C08F2007208410100
:1003A800AF0050011D08F20072084101B000B10110
:1003B800B2012030F2007208B3002030F200720857
:1003C800B40050019A019B011E170C30F20072080C
:1003D800F3001E140000000050011C08F20073080E
:1003E800A93E86008701720881000130F200720878
:1003F8009A07031D002A012A052A0130F200720813
:100408009B070130F2007208F30710307302031CD7
:100418000E2A0F2AED29193008004101250850013C
:100428009A004101260850019B0080309E0040013F
:10043800A201A301F501F6014B2A50011E14000088
:10044800000050011C08F200F30172084001A207E5
:100458007308A33D50011D08F200F3017208F30070
:10046800F20172084001A2077308A33D0130F200AF
:10047800720850019A07031D422A432A472A01306D
:10048800F20072089B070230F5070030F63D410183
:1004980022087602031D522A21087502031C552AD8
:1004A800562A212A40012208F20072084101A900B7
:1004B80040012308F20072084101AA000B3008002D
:1004C8004101250850019A004101260850019B006E
:1004D800F301F401962A7F3050011B05F2004030E9
:1004E8007202031C782A792A802AFE30F2007208E8
:1004F8004101A9000A30A62A94309E0083318E2338
:1005080082312030F200720850019A07031D8D2AAB
:100518008E2A922A0130F20072089B070130F307F5
:100528000030F43D410122087402031D9D2A210870
:100538007302031CA02AA12A6F2AA901A90AA301F0
:10054800A4010A30080040019C0101309B00980179
:1005580099019A010F309600FF309200FF30930006
:10056800FF309400FE309500FC307E01D900FF304A
:10057800CE00FF30C3000330E400FF30B800DA01DA
:100588000430E500C401B901CF01E601BA01C50193
:10059800D001DB01FF30BB00FF30C600FF30D100C7
:1005A800FF30DC000730E700FF30BC00FF30C70039
:1005B800FF30D200FF30DD000F30E8001130A80016
:1005C80019307D01CD0008004101250850019A002D
:1005D8004101260850019B0040309E00F401112B78
:1005E80050011E140000000050011C08F20074089D
:1005F800A93E86008701720881001D08F200740870
:10060800AA3E86008701720881000130F200720854
:100618009A070230F2007208F4077408F200F30136
:10062800410122087302031D1B2B21087202031CBF
:100638001E2B1F2BF42A0D300800083054019F0090
:1006480090309D0024309E0040309B0003309C0079
:100658000030F2000030F3008331B82383310030DA
:10066800F2000030F3008331B22383310030F2000E
:100678000030F3008331BE2383314001A701080015
:100688004001F001F101813165218331013A031DF7
:100698004E2B4F2B522B80311C2083311F307F0172
:1006A800ED00400188018431002C08008331972334
:1006B80083318231A722833183317A238331833195
:1006C8002123833183314423833108004E018F1F56
:1006D8006E2B6F2B6A2B4001A70154019D1C752BB3
:1006E800762B782B1D121D16190808006030510151
:1006F8008D008F019101063093009001920108004E
:10070800F2004E010F1F892B8A2B852B720854018A
:100718009A000800640070089F0071089F009E14EA
:100728000000000008004F01960197019801990107
:100738009A019B0108007D03031DA32BA42BA52B65
:1007480001000800640080010131890BA72B0034E7
:1007580083315A238331AF2B803106287308400137
:10076800AB007208AA00080073084001AD007208C7
:10077800AC00080073084001A9007208A80008002E
:020000040001F9
:0A000E00EC3FFF3F9F3FFF3FFF3F25
:00000001FF
